{
    "contractName": "DecentralizedGallery",
    "abi": [
        {
            "anonymous": false,
            "inputs": [
                {
                    "indexed": false,
                    "internalType": "uint256",
                    "name": "id",
                    "type": "uint256"
                },
                {
                    "indexed": false,
                    "internalType": "string",
                    "name": "ipfsHash",
                    "type": "string"
                },
                {
                    "indexed": false,
                    "internalType": "address",
                    "name": "owner",
                    "type": "address"
                }
            ],
            "name": "ImageUploaded",
            "type": "event"
        },
        {
            "inputs": [
                {
                    "internalType": "uint256",
                    "name": "",
                    "type": "uint256"
                }
            ],
            "name": "images",
            "outputs": [
                {
                    "internalType": "string",
                    "name": "ipfsHash",
                    "type": "string"
                },
                {
                    "internalType": "address",
                    "name": "owner",
                    "type": "address"
                }
            ],
            "stateMutability": "view",
            "type": "function",
            "constant": true
        },
        {
            "inputs": [
                {
                    "internalType": "string",
                    "name": "_ipfsHash",
                    "type": "string"
                }
            ],
            "name": "uploadImage",
            "outputs": [],
            "stateMutability": "nonpayable",
            "type": "function"
        },
        {
            "inputs": [],
            "name": "getImageCount",
            "outputs": [
                {
                    "internalType": "uint256",
                    "name": "",
                    "type": "uint256"
                }
            ],
            "stateMutability": "view",
            "type": "function",
            "constant": true
        },
        {
            "inputs": [
                {
                    "internalType": "uint256",
                    "name": "_id",
                    "type": "uint256"
                }
            ],
            "name": "getImage",
            "outputs": [
                {
                    "internalType": "string",
                    "name": "",
                    "type": "string"
                },
                {
                    "internalType": "address",
                    "name": "",
                    "type": "address"
                }
            ],
            "stateMutability": "view",
            "type": "function",
            "constant": true
        }
    ],
    "bytecode": "0x608060405234801561001057600080fd5b506109f4806100206000396000f3fe608060405234801561001057600080fd5b506004361061004c5760003560e01c80632607aafa146100515780638485648214610082578063e740c8a0146100b3578063f97c44a9146100cf575b600080fd5b61006b60048036038101906100669190610543565b6100ed565b60405161007992919061064a565b60405180910390f35b61009c60048036038101906100979190610543565b610263565b6040516100aa92919061064a565b60405180910390f35b6100cd60048036038101906100c891906107af565b61033f565b005b6100d761044a565b6040516100e49190610807565b60405180910390f35b6060600080805490508310610137576040517f08c379a000000000000000000000000000000000000000000000000000000000815260040161012e9061086e565b60405180910390fd5b600080848154811061014c5761014b61088e565b5b9060005260206000209060020201604051806040016040529081600082018054610175906108ec565b80601f01602080910402602001604051908101604052809291908181526020018280546101a1906108ec565b80156101ee5780601f106101c3576101008083540402835291602001916101ee565b820191906000526020600020905b8154815290600101906020018083116101d157829003601f168201915b505050505081526020016001820160009054906101000a900473ffffffffffffffffffffffffffffffffffffffff1673ffffffffffffffffffffffffffffffffffffffff1673ffffffffffffffffffffffffffffffffffffffff16815250509050806000015181602001519250925050915091565b6000818154811061027357600080fd5b9060005260206000209060020201600091509050806000018054610296906108ec565b80601f01602080910402602001604051908101604052809291908181526020018280546102c2906108ec565b801561030f5780601f106102e45761010080835404028352916020019161030f565b820191906000526020600020905b8154815290600101906020018083116102f257829003601f168201915b5050505050908060010160009054906101000a900473ffffffffffffffffffffffffffffffffffffffff16905082565b600060405180604001604052808381526020013373ffffffffffffffffffffffffffffffffffffffff16815250908060018154018082558091505060019003906000526020600020906002020160009091909190915060008201518160000190805190602001906103b1929190610456565b5060208201518160010160006101000a81548173ffffffffffffffffffffffffffffffffffffffff021916908373ffffffffffffffffffffffffffffffffffffffff16021790555050507f3543a6878b0a0f9ec87fe453b8f783f8cee19541e78b2c83d591c7b1228b62c5600160008054905061042e919061094c565b823360405161043f93929190610980565b60405180910390a150565b60008080549050905090565b828054610462906108ec565b90600052602060002090601f01602090048101928261048457600085556104cb565b82601f1061049d57805160ff19168380011785556104cb565b828001600101855582156104cb579182015b828111156104ca5782518255916020019190600101906104af565b5b5090506104d891906104dc565b5090565b5b808211156104f55760008160009055506001016104dd565b5090565b6000604051905090565b600080fd5b600080fd5b6000819050919050565b6105208161050d565b811461052b57600080fd5b50565b60008135905061053d81610517565b92915050565b60006020828403121561055957610558610503565b5b60006105678482850161052e565b91505092915050565b600081519050919050565b600082825260208201905092915050565b60005b838110156105aa57808201518184015260208101905061058f565b838111156105b9576000848401525b50505050565b6000601f19601f8301169050919050565b60006105db82610570565b6105e5818561057b565b93506105f581856020860161058c565b6105fe816105bf565b840191505092915050565b600073ffffffffffffffffffffffffffffffffffffffff82169050919050565b600061063482610609565b9050919050565b61064481610629565b82525050565b6000604082019050818103600083015261066481856105d0565b9050610673602083018461063b565b9392505050565b600080fd5b600080fd5b7f4e487b7100000000000000000000000000000000000000000000000000000000600052604160045260246000fd5b6106bc826105bf565b810181811067ffffffffffffffff821117156106db576106da610684565b5b80604052505050565b60006106ee6104f9565b90506106fa82826106b3565b919050565b600067ffffffffffffffff82111561071a57610719610684565b5b610723826105bf565b9050602081019050919050565b82818337600083830152505050565b600061075261074d846106ff565b6106e4565b90508281526020810184848401111561076e5761076d61067f565b5b610779848285610730565b509392505050565b600082601f8301126107965761079561067a565b5b81356107a684826020860161073f565b91505092915050565b6000602082840312156107c5576107c4610503565b5b600082013567ffffffffffffffff8111156107e3576107e2610508565b5b6107ef84828501610781565b91505092915050565b6108018161050d565b82525050565b600060208201905061081c60008301846107f8565b92915050565b7f496d61676520646f6573206e6f74206578697374000000000000000000000000600082015250565b600061085860148361057b565b915061086382610822565b602082019050919050565b600060208201905081810360008301526108878161084b565b9050919050565b7f4e487b7100000000000000000000000000000000000000000000000000000000600052603260045260246000fd5b7f4e487b7100000000000000000000000000000000000000000000000000000000600052602260045260246000fd5b6000600282049050600182168061090457607f821691505b602082108103610917576109166108bd565b5b50919050565b7f4e487b7100000000000000000000000000000000000000000000000000000000600052601160045260246000fd5b60006109578261050d565b91506109628361050d565b9250828210156109755761097461091d565b5b828203905092915050565b600060608201905061099560008301866107f8565b81810360208301526109a781856105d0565b90506109b6604083018461063b565b94935050505056fea2646970667358221220b22f5f6bac4fcd84dcc644b9624f4d8f8d5705a2eefdaf03d0d156a13a43ea1e64736f6c634300080d0033",
    "immutableReferences": {},
    "source": "// SPDX-License-Identifier: MIT\r\npragma solidity ^0.8.0;\r\n\r\ncontract DecentralizedGallery {\r\n    struct Image {\r\n        string ipfsHash;\r\n        address owner;\r\n    }\r\n\r\n    Image[] public images;\r\n\r\n    event ImageUploaded(uint256 id, string ipfsHash, address owner);\r\n\r\n    function uploadImage(string memory _ipfsHash) public {\r\n        images.push(Image(_ipfsHash, msg.sender));\r\n        emit ImageUploaded(images.length - 1, _ipfsHash, msg.sender);\r\n    }\r\n\r\n    function getImageCount() public view returns (uint256) {\r\n        return images.length;\r\n    }\r\n\r\n    function getImage(uint256 _id) public view returns (string memory, address) {\r\n        require(_id < images.length, \"Image does not exist\");\r\n        Image memory image = images[_id];\r\n        return (image.ipfsHash, image.owner);\r\n    }\r\n}",
    "sourcePath": "C:\\Users\\acer\\Documents\\decentralized-gallery\\contracts\\DecentralizedGallery.sol",
    "compiler": {
        "name": "solc",
        "version": "0.8.13+commit.abaa5c0e.Emscripten.clang"
    },
    "schemaVersion": "3.4.16",
    "updatedAt": "2024-11-09T14:37:57.233Z",
    "networkType": "ethereum",
    "devdoc": {
        "kind": "dev",
        "methods": {},
        "version": 1
    },
    "userdoc": {
        "kind": "user",
        "methods": {},
        "version": 1
    }
}